{
  "_format": "hh-sol-artifact-1",
  "contractName": "MedicalResearch",
  "sourceName": "contracts/MedicalResearch.sol",
  "abi": [
    {
      "inputs": [
        {
          "internalType": "address",
          "name": "_tokenAddress",
          "type": "address"
        }
      ],
      "stateMutability": "nonpayable",
      "type": "constructor"
    },
    {
      "anonymous": false,
      "inputs": [
        {
          "indexed": false,
          "internalType": "uint256",
          "name": "oldPaperId",
          "type": "uint256"
        },
        {
          "indexed": false,
          "internalType": "uint256",
          "name": "newPaperId",
          "type": "uint256"
        },
        {
          "indexed": false,
          "internalType": "uint256",
          "name": "contributionIndex",
          "type": "uint256"
        },
        {
          "indexed": true,
          "internalType": "address",
          "name": "contributor",
          "type": "address"
        },
        {
          "indexed": false,
          "internalType": "uint256",
          "name": "rewardAmount",
          "type": "uint256"
        }
      ],
      "name": "ContributionApproved",
      "type": "event"
    },
    {
      "anonymous": false,
      "inputs": [
        {
          "indexed": false,
          "internalType": "uint256",
          "name": "paperId",
          "type": "uint256"
        },
        {
          "indexed": false,
          "internalType": "uint256",
          "name": "contributionIndex",
          "type": "uint256"
        },
        {
          "indexed": true,
          "internalType": "address",
          "name": "contributor",
          "type": "address"
        },
        {
          "indexed": false,
          "internalType": "string",
          "name": "changesHash",
          "type": "string"
        },
        {
          "indexed": false,
          "internalType": "uint256",
          "name": "stakeAmount",
          "type": "uint256"
        }
      ],
      "name": "ContributionSubmitted",
      "type": "event"
    },
    {
      "anonymous": false,
      "inputs": [
        {
          "indexed": false,
          "internalType": "uint256",
          "name": "paperId",
          "type": "uint256"
        },
        {
          "indexed": true,
          "internalType": "address",
          "name": "user",
          "type": "address"
        },
        {
          "indexed": false,
          "internalType": "uint256",
          "name": "feePaid",
          "type": "uint256"
        }
      ],
      "name": "PaperAccessed",
      "type": "event"
    },
    {
      "anonymous": false,
      "inputs": [
        {
          "indexed": false,
          "internalType": "uint256",
          "name": "newPaperId",
          "type": "uint256"
        },
        {
          "indexed": false,
          "internalType": "string",
          "name": "newContentHash",
          "type": "string"
        }
      ],
      "name": "PaperUpdated",
      "type": "event"
    },
    {
      "anonymous": false,
      "inputs": [
        {
          "indexed": false,
          "internalType": "uint256",
          "name": "paperId",
          "type": "uint256"
        },
        {
          "indexed": true,
          "internalType": "address",
          "name": "author",
          "type": "address"
        },
        {
          "indexed": false,
          "internalType": "string",
          "name": "title",
          "type": "string"
        },
        {
          "indexed": false,
          "internalType": "string",
          "name": "contentHash",
          "type": "string"
        },
        {
          "indexed": false,
          "internalType": "uint256",
          "name": "accessFee",
          "type": "uint256"
        },
        {
          "indexed": false,
          "internalType": "string[]",
          "name": "keywords",
          "type": "string[]"
        }
      ],
      "name": "PaperUploaded",
      "type": "event"
    },
    {
      "inputs": [
        {
          "internalType": "uint256",
          "name": "paperId",
          "type": "uint256"
        }
      ],
      "name": "accessPaper",
      "outputs": [],
      "stateMutability": "payable",
      "type": "function"
    },
    {
      "inputs": [
        {
          "internalType": "uint256",
          "name": "paperId",
          "type": "uint256"
        },
        {
          "internalType": "uint256",
          "name": "contributionIndex",
          "type": "uint256"
        }
      ],
      "name": "approveContribution",
      "outputs": [],
      "stateMutability": "nonpayable",
      "type": "function"
    },
    {
      "inputs": [
        {
          "internalType": "uint256",
          "name": "",
          "type": "uint256"
        },
        {
          "internalType": "uint256",
          "name": "",
          "type": "uint256"
        }
      ],
      "name": "contributions",
      "outputs": [
        {
          "internalType": "address",
          "name": "contributor",
          "type": "address"
        },
        {
          "internalType": "string",
          "name": "changesHash",
          "type": "string"
        },
        {
          "internalType": "bool",
          "name": "approved",
          "type": "bool"
        },
        {
          "internalType": "uint256",
          "name": "stakeAmount",
          "type": "uint256"
        }
      ],
      "stateMutability": "view",
      "type": "function"
    },
    {
      "inputs": [
        {
          "internalType": "address",
          "name": "s",
          "type": "address"
        },
        {
          "internalType": "uint256",
          "name": "paperId",
          "type": "uint256"
        }
      ],
      "name": "getAccessibillity",
      "outputs": [
        {
          "internalType": "bool",
          "name": "",
          "type": "bool"
        }
      ],
      "stateMutability": "view",
      "type": "function"
    },
    {
      "inputs": [
        {
          "internalType": "uint256",
          "name": "paperId",
          "type": "uint256"
        },
        {
          "internalType": "uint256",
          "name": "index",
          "type": "uint256"
        }
      ],
      "name": "getContributionByIndex",
      "outputs": [
        {
          "components": [
            {
              "internalType": "address",
              "name": "contributor",
              "type": "address"
            },
            {
              "internalType": "string",
              "name": "changesHash",
              "type": "string"
            },
            {
              "internalType": "bool",
              "name": "approved",
              "type": "bool"
            },
            {
              "internalType": "uint256",
              "name": "stakeAmount",
              "type": "uint256"
            }
          ],
          "internalType": "struct MedicalResearch.Contribution",
          "name": "",
          "type": "tuple"
        }
      ],
      "stateMutability": "view",
      "type": "function"
    },
    {
      "inputs": [
        {
          "internalType": "address",
          "name": "owner",
          "type": "address"
        }
      ],
      "name": "getOwnerPaperCount",
      "outputs": [
        {
          "internalType": "uint256",
          "name": "",
          "type": "uint256"
        }
      ],
      "stateMutability": "view",
      "type": "function"
    },
    {
      "inputs": [
        {
          "internalType": "uint256",
          "name": "paperId",
          "type": "uint256"
        }
      ],
      "name": "getPaperById",
      "outputs": [
        {
          "internalType": "address",
          "name": "author",
          "type": "address"
        },
        {
          "internalType": "string",
          "name": "title",
          "type": "string"
        },
        {
          "internalType": "string",
          "name": "contentHash",
          "type": "string"
        },
        {
          "internalType": "uint256",
          "name": "accessFee",
          "type": "uint256"
        },
        {
          "internalType": "string[]",
          "name": "keywords",
          "type": "string[]"
        },
        {
          "internalType": "uint256",
          "name": "parentPaperId",
          "type": "uint256"
        }
      ],
      "stateMutability": "view",
      "type": "function"
    },
    {
      "inputs": [
        {
          "internalType": "address",
          "name": "owner",
          "type": "address"
        },
        {
          "internalType": "uint256",
          "name": "index",
          "type": "uint256"
        }
      ],
      "name": "getPaperIdByOwnerAndIndex",
      "outputs": [
        {
          "internalType": "uint256",
          "name": "",
          "type": "uint256"
        }
      ],
      "stateMutability": "view",
      "type": "function"
    },
    {
      "inputs": [
        {
          "internalType": "address",
          "name": "user",
          "type": "address"
        }
      ],
      "name": "getPapersAccessedByUser",
      "outputs": [
        {
          "internalType": "uint256[]",
          "name": "",
          "type": "uint256[]"
        }
      ],
      "stateMutability": "view",
      "type": "function"
    },
    {
      "inputs": [],
      "name": "getTotalPaperCount",
      "outputs": [
        {
          "internalType": "uint256",
          "name": "",
          "type": "uint256"
        }
      ],
      "stateMutability": "view",
      "type": "function"
    },
    {
      "inputs": [
        {
          "internalType": "address",
          "name": "",
          "type": "address"
        }
      ],
      "name": "ownerPaperCount",
      "outputs": [
        {
          "internalType": "uint256",
          "name": "",
          "type": "uint256"
        }
      ],
      "stateMutability": "view",
      "type": "function"
    },
    {
      "inputs": [
        {
          "internalType": "address",
          "name": "",
          "type": "address"
        },
        {
          "internalType": "uint256",
          "name": "",
          "type": "uint256"
        }
      ],
      "name": "ownerPapers",
      "outputs": [
        {
          "internalType": "uint256",
          "name": "",
          "type": "uint256"
        }
      ],
      "stateMutability": "view",
      "type": "function"
    },
    {
      "inputs": [
        {
          "internalType": "uint256",
          "name": "",
          "type": "uint256"
        }
      ],
      "name": "paperAccessFees",
      "outputs": [
        {
          "internalType": "uint256",
          "name": "",
          "type": "uint256"
        }
      ],
      "stateMutability": "view",
      "type": "function"
    },
    {
      "inputs": [
        {
          "internalType": "address",
          "name": "",
          "type": "address"
        },
        {
          "internalType": "uint256",
          "name": "",
          "type": "uint256"
        }
      ],
      "name": "paperAccessed",
      "outputs": [
        {
          "internalType": "bool",
          "name": "",
          "type": "bool"
        }
      ],
      "stateMutability": "view",
      "type": "function"
    },
    {
      "inputs": [
        {
          "internalType": "uint256",
          "name": "",
          "type": "uint256"
        }
      ],
      "name": "paperContributionCount",
      "outputs": [
        {
          "internalType": "uint256",
          "name": "",
          "type": "uint256"
        }
      ],
      "stateMutability": "view",
      "type": "function"
    },
    {
      "inputs": [
        {
          "internalType": "uint256",
          "name": "",
          "type": "uint256"
        }
      ],
      "name": "papers",
      "outputs": [
        {
          "internalType": "address",
          "name": "author",
          "type": "address"
        },
        {
          "internalType": "string",
          "name": "title",
          "type": "string"
        },
        {
          "internalType": "string",
          "name": "contentHash",
          "type": "string"
        },
        {
          "internalType": "uint256",
          "name": "accessFee",
          "type": "uint256"
        },
        {
          "internalType": "bool",
          "name": "exists",
          "type": "bool"
        },
        {
          "internalType": "uint256",
          "name": "parentPaperId",
          "type": "uint256"
        }
      ],
      "stateMutability": "view",
      "type": "function"
    },
    {
      "inputs": [
        {
          "internalType": "uint256",
          "name": "paperId",
          "type": "uint256"
        },
        {
          "internalType": "string",
          "name": "changesHash",
          "type": "string"
        },
        {
          "internalType": "uint256",
          "name": "stakeAmount",
          "type": "uint256"
        }
      ],
      "name": "submitContribution",
      "outputs": [],
      "stateMutability": "nonpayable",
      "type": "function"
    },
    {
      "inputs": [],
      "name": "token",
      "outputs": [
        {
          "internalType": "contract ERC20",
          "name": "",
          "type": "address"
        }
      ],
      "stateMutability": "view",
      "type": "function"
    },
    {
      "inputs": [
        {
          "internalType": "string",
          "name": "title",
          "type": "string"
        },
        {
          "internalType": "string",
          "name": "contentHash",
          "type": "string"
        },
        {
          "internalType": "uint256",
          "name": "accessFee",
          "type": "uint256"
        },
        {
          "internalType": "string[]",
          "name": "keywords",
          "type": "string[]"
        }
      ],
      "name": "uploadPaper",
      "outputs": [],
      "stateMutability": "nonpayable",
      "type": "function"
    },
    {
      "inputs": [
        {
          "internalType": "address",
          "name": "",
          "type": "address"
        }
      ],
      "name": "userContributionCount",
      "outputs": [
        {
          "internalType": "uint256",
          "name": "",
          "type": "uint256"
        }
      ],
      "stateMutability": "view",
      "type": "function"
    }
  ],
  "bytecode": "0x60806040523480156200001157600080fd5b50604051620039df380380620039df8339818101604052810190620000379190620000ff565b806000806101000a81548173ffffffffffffffffffffffffffffffffffffffff021916908373ffffffffffffffffffffffffffffffffffffffff16021790555060018081905550600060028190555060006003819055505062000131565b600080fd5b600073ffffffffffffffffffffffffffffffffffffffff82169050919050565b6000620000c7826200009a565b9050919050565b620000d981620000ba565b8114620000e557600080fd5b50565b600081519050620000f981620000ce565b92915050565b60006020828403121562000118576200011762000095565b5b60006200012884828501620000e8565b91505092915050565b61389e80620001416000396000f3fe60806040526004361061011f5760003560e01c8063a1c74be5116100a0578063df771aca11610064578063df771aca14610476578063e9436a2814610492578063f1857f36146104cf578063f690ab2f1461050c578063fc0c546a146105495761011f565b8063a1c74be51461037f578063a949dfdf146103a8578063aa4a66dd146103e5578063ad965ae61461040e578063dc740fa8146104395761011f565b806377154fde116100e757806377154fde1461024b5780637ed4cd8714610288578063830e28f6146102c557806387f0c8ac146103055780638936c143146103425761011f565b8063159f392714610124578063218ace50146101615780633e0b78101461019e5780635e775a27146101e05780636fd91da914610222575b600080fd5b34801561013057600080fd5b5061014b600480360381019061014691906124f1565b610574565b6040516101589190612540565b60405180910390f35b34801561016d57600080fd5b506101886004803603810190610183919061255b565b610650565b60405161019591906126c7565b60405180910390f35b3480156101aa57600080fd5b506101c560048036038101906101c091906126e9565b6107f1565b6040516101d796959493929190612831565b60405180910390f35b3480156101ec57600080fd5b50610207600480360381019061020291906126e9565b610b37565b604051610219969594939291906128b6565b60405180910390f35b34801561022e57600080fd5b506102496004803603810190610244919061255b565b610cb0565b005b34801561025757600080fd5b50610272600480360381019061026d9190612925565b61157d565b60405161027f9190612540565b60405180910390f35b34801561029457600080fd5b506102af60048036038101906102aa9190612925565b611595565b6040516102bc9190612a01565b60405180910390f35b3480156102d157600080fd5b506102ec60048036038101906102e7919061255b565b61173d565b6040516102fc9493929190612a23565b60405180910390f35b34801561031157600080fd5b5061032c600480360381019061032791906126e9565b61182f565b6040516103399190612540565b60405180910390f35b34801561034e57600080fd5b50610369600480360381019061036491906124f1565b611847565b6040516103769190612a6f565b60405180910390f35b34801561038b57600080fd5b506103a660048036038101906103a19190612ca5565b6118af565b005b3480156103b457600080fd5b506103cf60048036038101906103ca91906126e9565b611bbc565b6040516103dc9190612540565b60405180910390f35b3480156103f157600080fd5b5061040c60048036038101906104079190612d60565b611bd4565b005b34801561041a57600080fd5b50610423611eee565b6040516104309190612540565b60405180910390f35b34801561044557600080fd5b50610460600480360381019061045b9190612925565b611ef8565b60405161046d9190612540565b60405180910390f35b610490600480360381019061048b91906126e9565b611f41565b005b34801561049e57600080fd5b506104b960048036038101906104b49190612925565b61229f565b6040516104c69190612540565b60405180910390f35b3480156104db57600080fd5b506104f660048036038101906104f191906124f1565b6122b7565b6040516105039190612a6f565b60405180910390f35b34801561051857600080fd5b50610533600480360381019061052e91906124f1565b6122e6565b6040516105409190612540565b60405180910390f35b34801561055557600080fd5b5061055e61230b565b60405161056b9190612e2e565b60405180910390f35b6000600b60008473ffffffffffffffffffffffffffffffffffffffff1673ffffffffffffffffffffffffffffffffffffffff1681526020019081526020016000205482106105f7576040517f08c379a00000000000000000000000000000000000000000000000000000000081526004016105ee90612e95565b60405180910390fd5b600a60008473ffffffffffffffffffffffffffffffffffffffff1673ffffffffffffffffffffffffffffffffffffffff168152602001908152602001600020600083815260200190815260200160002054905092915050565b61065861232f565b600660008481526020019081526020016000205482106106ad576040517f08c379a00000000000000000000000000000000000000000000000000000000081526004016106a490612e95565b60405180910390fd5b6005600084815260200190815260200160002060008381526020019081526020016000206040518060800160405290816000820160009054906101000a900473ffffffffffffffffffffffffffffffffffffffff1673ffffffffffffffffffffffffffffffffffffffff1673ffffffffffffffffffffffffffffffffffffffff16815260200160018201805461074290612ee4565b80601f016020809104026020016040519081016040528092919081815260200182805461076e90612ee4565b80156107bb5780601f10610790576101008083540402835291602001916107bb565b820191906000526020600020905b81548152906001019060200180831161079e57829003601f168201915b505050505081526020016002820160009054906101000a900460ff16151515158152602001600382015481525050905092915050565b60006060806000606060006004600088815260200190815260200160002060050160009054906101000a900460ff1661085f576040517f08c379a000000000000000000000000000000000000000000000000000000000815260040161085690612f61565b60405180910390fd5b6000600460008981526020019081526020016000206040518060e00160405290816000820160009054906101000a900473ffffffffffffffffffffffffffffffffffffffff1673ffffffffffffffffffffffffffffffffffffffff1673ffffffffffffffffffffffffffffffffffffffff1681526020016001820180546108e590612ee4565b80601f016020809104026020016040519081016040528092919081815260200182805461091190612ee4565b801561095e5780601f106109335761010080835404028352916020019161095e565b820191906000526020600020905b81548152906001019060200180831161094157829003601f168201915b5050505050815260200160028201805461097790612ee4565b80601f01602080910402602001604051908101604052809291908181526020018280546109a390612ee4565b80156109f05780601f106109c5576101008083540402835291602001916109f0565b820191906000526020600020905b8154815290600101906020018083116109d357829003601f168201915b505050505081526020016003820154815260200160048201805480602002602001604051908101604052809291908181526020016000905b82821015610ad4578382906000526020600020018054610a4790612ee4565b80601f0160208091040260200160405190810160405280929190818152602001828054610a7390612ee4565b8015610ac05780601f10610a9557610100808354040283529160200191610ac0565b820191906000526020600020905b815481529060010190602001808311610aa357829003601f168201915b505050505081526020019060010190610a28565b5050505081526020016005820160009054906101000a900460ff161515151581526020016006820154815250509050806000015181602001518260400151836060015184608001518560c001519650965096509650965096505091939550919395565b60046020528060005260406000206000915090508060000160009054906101000a900473ffffffffffffffffffffffffffffffffffffffff1690806001018054610b8090612ee4565b80601f0160208091040260200160405190810160405280929190818152602001828054610bac90612ee4565b8015610bf95780601f10610bce57610100808354040283529160200191610bf9565b820191906000526020600020905b815481529060010190602001808311610bdc57829003601f168201915b505050505090806002018054610c0e90612ee4565b80601f0160208091040260200160405190810160405280929190818152602001828054610c3a90612ee4565b8015610c875780601f10610c5c57610100808354040283529160200191610c87565b820191906000526020600020905b815481529060010190602001808311610c6a57829003601f168201915b5050505050908060030154908060050160009054906101000a900460ff16908060060154905086565b6004600083815260200190815260200160002060050160009054906101000a900460ff16610d13576040517f08c379a0000000000000000000000000000000000000000000000000000000008152600401610d0a90612f61565b60405180910390fd5b6004600083815260200190815260200160002060000160009054906101000a900473ffffffffffffffffffffffffffffffffffffffff1673ffffffffffffffffffffffffffffffffffffffff163373ffffffffffffffffffffffffffffffffffffffff1614610db7576040517f08c379a0000000000000000000000000000000000000000000000000000000008152600401610dae90612ff3565b60405180910390fd5b60066000838152602001908152602001600020548110610e0c576040517f08c379a0000000000000000000000000000000000000000000000000000000008152600401610e039061305f565b60405180910390fd5b60056000838152602001908152602001600020600082815260200190815260200160002060020160009054906101000a900460ff1615610e81576040517f08c379a0000000000000000000000000000000000000000000000000000000008152600401610e78906130cb565b60405180910390fd5b6000600560008481526020019081526020016000206000838152602001908152602001600020905060006064600a6007600087815260200190815260200160002054610ecd919061311a565b610ed7919061318b565b8260030154610ee691906131bc565b905060008054906101000a900473ffffffffffffffffffffffffffffffffffffffff1673ffffffffffffffffffffffffffffffffffffffff1663a9059cbb8360000160009054906101000a900473ffffffffffffffffffffffffffffffffffffffff16836040518363ffffffff1660e01b8152600401610f679291906131f0565b6020604051808303816000875af1158015610f86573d6000803e3d6000fd5b505050506040513d601f19601f82011682018060405250810190610faa9190613245565b610fe9576040517f08c379a0000000000000000000000000000000000000000000000000000000008152600401610fe0906132be565b60405180910390fd5b6000600154905060016000815480929190611003906132de565b91905055506040518060e001604052803373ffffffffffffffffffffffffffffffffffffffff16815260200160046000888152602001908152602001600020600101805461105090612ee4565b80601f016020809104026020016040519081016040528092919081815260200182805461107c90612ee4565b80156110c95780601f1061109e576101008083540402835291602001916110c9565b820191906000526020600020905b8154815290600101906020018083116110ac57829003601f168201915b505050505081526020018460010180546110e290612ee4565b80601f016020809104026020016040519081016040528092919081815260200182805461110e90612ee4565b801561115b5780601f106111305761010080835404028352916020019161115b565b820191906000526020600020905b81548152906001019060200180831161113e57829003601f168201915b505050505081526020016004600088815260200190815260200160002060030154815260200160046000888152602001908152602001600020600401805480602002602001604051908101604052809291908181526020016000905b828210156112635783829060005260206000200180546111d690612ee4565b80601f016020809104026020016040519081016040528092919081815260200182805461120290612ee4565b801561124f5780601f106112245761010080835404028352916020019161124f565b820191906000526020600020905b81548152906001019060200180831161123257829003601f168201915b5050505050815260200190600101906111b7565b505050508152602001600115158152602001868152506004600083815260200190815260200160002060008201518160000160006101000a81548173ffffffffffffffffffffffffffffffffffffffff021916908373ffffffffffffffffffffffffffffffffffffffff16021790555060208201518160010190816112e891906134c8565b5060408201518160020190816112fe91906134c8565b5060608201518160030155608082015181600401908051906020019061132592919061236f565b5060a08201518160050160006101000a81548160ff02191690831515021790555060c0820151816006015590505080600a60003373ffffffffffffffffffffffffffffffffffffffff1673ffffffffffffffffffffffffffffffffffffffff1681526020019081526020016000206000600b60003373ffffffffffffffffffffffffffffffffffffffff1673ffffffffffffffffffffffffffffffffffffffff16815260200190815260200160002054815260200190815260200160002081905550600b60003373ffffffffffffffffffffffffffffffffffffffff1673ffffffffffffffffffffffffffffffffffffffff1681526020019081526020016000206000815480929190611437906132de565b919050555060018360020160006101000a81548160ff0219169083151502179055506001600860003373ffffffffffffffffffffffffffffffffffffffff1673ffffffffffffffffffffffffffffffffffffffff168152602001908152602001600020600083815260200190815260200160002060006101000a81548160ff0219169083151502179055508260000160009054906101000a900473ffffffffffffffffffffffffffffffffffffffff1673ffffffffffffffffffffffffffffffffffffffff167f09b0fc1dfdfeca1d7e9d6e25a76602e33ed913671db0f6aae33735eb74b6610786838786604051611532949392919061359a565b60405180910390a27fb97425b8ec45aa7c5ccc9b938659eb11b5502276f1eec240e61baf207824396c818460010160405161156e929190613663565b60405180910390a15050505050565b60096020528060005260406000206000915090505481565b6060600080600190505b600154811161162d57600860008573ffffffffffffffffffffffffffffffffffffffff1673ffffffffffffffffffffffffffffffffffffffff168152602001908152602001600020600082815260200190815260200160002060009054906101000a900460ff161561161a578180611616906132de565b9250505b8080611625906132de565b91505061159f565b5060008167ffffffffffffffff81111561164a57611649612a94565b5b6040519080825280602002602001820160405280156116785781602001602082028036833780820191505090505b509050600080600190505b600154811161173157600860008773ffffffffffffffffffffffffffffffffffffffff1673ffffffffffffffffffffffffffffffffffffffff168152602001908152602001600020600082815260200190815260200160002060009054906101000a900460ff161561171e578083838151811061170357611702613693565b5b602002602001018181525050818061171a906132de565b9250505b8080611729906132de565b915050611683565b50819350505050919050565b6005602052816000526040600020602052806000526040600020600091509150508060000160009054906101000a900473ffffffffffffffffffffffffffffffffffffffff169080600101805461179390612ee4565b80601f01602080910402602001604051908101604052809291908181526020018280546117bf90612ee4565b801561180c5780601f106117e15761010080835404028352916020019161180c565b820191906000526020600020905b8154815290600101906020018083116117ef57829003601f168201915b5050505050908060020160009054906101000a900460ff16908060030154905084565b60066020528060005260406000206000915090505481565b6000600860008473ffffffffffffffffffffffffffffffffffffffff1673ffffffffffffffffffffffffffffffffffffffff168152602001908152602001600020600083815260200190815260200160002060009054906101000a900460ff16905092915050565b60006001549050600160008154809291906118c9906132de565b91905055506040518060e001604052803373ffffffffffffffffffffffffffffffffffffffff16815260200186815260200185815260200184815260200183815260200160011515815260200160008152506004600083815260200190815260200160002060008201518160000160006101000a81548173ffffffffffffffffffffffffffffffffffffffff021916908373ffffffffffffffffffffffffffffffffffffffff160217905550602082015181600101908161198a91906134c8565b5060408201518160020190816119a091906134c8565b506060820151816003015560808201518160040190805190602001906119c792919061236f565b5060a08201518160050160006101000a81548160ff02191690831515021790555060c0820151816006015590505080600a60003373ffffffffffffffffffffffffffffffffffffffff1673ffffffffffffffffffffffffffffffffffffffff1681526020019081526020016000206000600b60003373ffffffffffffffffffffffffffffffffffffffff1673ffffffffffffffffffffffffffffffffffffffff16815260200190815260200160002054815260200190815260200160002081905550600b60003373ffffffffffffffffffffffffffffffffffffffff1673ffffffffffffffffffffffffffffffffffffffff1681526020019081526020016000206000815480929190611ad9906132de565b919050555060036000815480929190611af1906132de565b91905055506001600860003373ffffffffffffffffffffffffffffffffffffffff1673ffffffffffffffffffffffffffffffffffffffff168152602001908152602001600020600083815260200190815260200160002060006101000a81548160ff0219169083151502179055503373ffffffffffffffffffffffffffffffffffffffff167f56eeaa024974e3268b1cdceef36baef0f1c89ce1f09afa010857b95d4aed25868287878787604051611bad9594939291906136c2565b60405180910390a25050505050565b60076020528060005260406000206000915090505481565b6004600084815260200190815260200160002060050160009054906101000a900460ff16611c37576040517f08c379a0000000000000000000000000000000000000000000000000000000008152600401611c2e90612f61565b60405180910390fd5b60008054906101000a900473ffffffffffffffffffffffffffffffffffffffff1673ffffffffffffffffffffffffffffffffffffffff166323b872dd3330846040518463ffffffff1660e01b8152600401611c949392919061372a565b6020604051808303816000875af1158015611cb3573d6000803e3d6000fd5b505050506040513d601f19601f82011682018060405250810190611cd79190613245565b611d16576040517f08c379a0000000000000000000000000000000000000000000000000000000008152600401611d0d906132be565b60405180910390fd5b600060066000858152602001908152602001600020549050600660008581526020019081526020016000206000815480929190611d52906132de565b919050555060405180608001604052803373ffffffffffffffffffffffffffffffffffffffff1681526020018481526020016000151581526020018381525060056000868152602001908152602001600020600083815260200190815260200160002060008201518160000160006101000a81548173ffffffffffffffffffffffffffffffffffffffff021916908373ffffffffffffffffffffffffffffffffffffffff1602179055506020820151816001019081611e1191906134c8565b5060408201518160020160006101000a81548160ff02191690831515021790555060608201518160030155905050600960003373ffffffffffffffffffffffffffffffffffffffff1673ffffffffffffffffffffffffffffffffffffffff1681526020019081526020016000206000815480929190611e8f906132de565b91905055503373ffffffffffffffffffffffffffffffffffffffff167fe17c01af799c5069ecf6fd9a231440a115adb7a1dea0306b06d8efe971a1a0b085838686604051611ee09493929190613761565b60405180910390a250505050565b6000600354905090565b6000600b60008373ffffffffffffffffffffffffffffffffffffffff1673ffffffffffffffffffffffffffffffffffffffff168152602001908152602001600020549050919050565b6004600082815260200190815260200160002060050160009054906101000a900460ff16611fa4576040517f08c379a0000000000000000000000000000000000000000000000000000000008152600401611f9b90612f61565b60405180910390fd5b600860003373ffffffffffffffffffffffffffffffffffffffff1673ffffffffffffffffffffffffffffffffffffffff168152602001908152602001600020600082815260200190815260200160002060009054906101000a900460ff1615612042576040517f08c379a00000000000000000000000000000000000000000000000000000000081526004016120399061381f565b60405180910390fd5b6000600460008381526020019081526020016000206003015411156121cd5760008054906101000a900473ffffffffffffffffffffffffffffffffffffffff1673ffffffffffffffffffffffffffffffffffffffff166323b872dd336004600085815260200190815260200160002060000160009054906101000a900473ffffffffffffffffffffffffffffffffffffffff1660046000868152602001908152602001600020600301546040518463ffffffff1660e01b815260040161210a9392919061372a565b6020604051808303816000875af1158015612129573d6000803e3d6000fd5b505050506040513d601f19601f8201168201806040525081019061214d9190613245565b61218c576040517f08c379a0000000000000000000000000000000000000000000000000000000008152600401612183906132be565b60405180910390fd5b60046000828152602001908152602001600020600301546007600083815260200190815260200160002060008282546121c591906131bc565b925050819055505b6001600860003373ffffffffffffffffffffffffffffffffffffffff1673ffffffffffffffffffffffffffffffffffffffff168152602001908152602001600020600083815260200190815260200160002060006101000a81548160ff0219169083151502179055503373ffffffffffffffffffffffffffffffffffffffff167f1442bdb26f7569db0cb308056cb26688f7aad42fc098b54920e1af1e8b67a5fc82600460008581526020019081526020016000206003015460405161229492919061383f565b60405180910390a250565b600b6020528060005260406000206000915090505481565b60086020528160005260406000206020528060005260406000206000915091509054906101000a900460ff1681565b600a602052816000526040600020602052806000526040600020600091509150505481565b60008054906101000a900473ffffffffffffffffffffffffffffffffffffffff1681565b6040518060800160405280600073ffffffffffffffffffffffffffffffffffffffff16815260200160608152602001600015158152602001600081525090565b8280548282559060005260206000209081019282156123b7579160200282015b828111156123b65782518290816123a691906134c8565b509160200191906001019061238f565b5b5090506123c491906123c8565b5090565b5b808211156123e857600081816123df91906123ec565b506001016123c9565b5090565b5080546123f890612ee4565b6000825580601f1061240a5750612429565b601f016020900490600052602060002090810190612428919061242c565b5b50565b5b8082111561244557600081600090555060010161242d565b5090565b6000604051905090565b600080fd5b600080fd5b600073ffffffffffffffffffffffffffffffffffffffff82169050919050565b60006124888261245d565b9050919050565b6124988161247d565b81146124a357600080fd5b50565b6000813590506124b58161248f565b92915050565b6000819050919050565b6124ce816124bb565b81146124d957600080fd5b50565b6000813590506124eb816124c5565b92915050565b6000806040838503121561250857612507612453565b5b6000612516858286016124a6565b9250506020612527858286016124dc565b9150509250929050565b61253a816124bb565b82525050565b60006020820190506125556000830184612531565b92915050565b6000806040838503121561257257612571612453565b5b6000612580858286016124dc565b9250506020612591858286016124dc565b9150509250929050565b6125a48161247d565b82525050565b600081519050919050565b600082825260208201905092915050565b60005b838110156125e45780820151818401526020810190506125c9565b60008484015250505050565b6000601f19601f8301169050919050565b600061260c826125aa565b61261681856125b5565b93506126268185602086016125c6565b61262f816125f0565b840191505092915050565b60008115159050919050565b61264f8161263a565b82525050565b61265e816124bb565b82525050565b600060808301600083015161267c600086018261259b565b50602083015184820360208601526126948282612601565b91505060408301516126a96040860182612646565b5060608301516126bc6060860182612655565b508091505092915050565b600060208201905081810360008301526126e18184612664565b905092915050565b6000602082840312156126ff576126fe612453565b5b600061270d848285016124dc565b91505092915050565b61271f8161247d565b82525050565b600082825260208201905092915050565b6000612741826125aa565b61274b8185612725565b935061275b8185602086016125c6565b612764816125f0565b840191505092915050565b600081519050919050565b600082825260208201905092915050565b6000819050602082019050919050565b60006127a78383612601565b905092915050565b6000602082019050919050565b60006127c78261276f565b6127d1818561277a565b9350836020820285016127e38561278b565b8060005b8581101561281f5784840389528151612800858261279b565b945061280b836127af565b925060208a019950506001810190506127e7565b50829750879550505050505092915050565b600060c0820190506128466000830189612716565b81810360208301526128588188612736565b9050818103604083015261286c8187612736565b905061287b6060830186612531565b818103608083015261288d81856127bc565b905061289c60a0830184612531565b979650505050505050565b6128b08161263a565b82525050565b600060c0820190506128cb6000830189612716565b81810360208301526128dd8188612736565b905081810360408301526128f18187612736565b90506129006060830186612531565b61290d60808301856128a7565b61291a60a0830184612531565b979650505050505050565b60006020828403121561293b5761293a612453565b5b6000612949848285016124a6565b91505092915050565b600081519050919050565b600082825260208201905092915050565b6000819050602082019050919050565b600061298a8383612655565b60208301905092915050565b6000602082019050919050565b60006129ae82612952565b6129b8818561295d565b93506129c38361296e565b8060005b838110156129f45781516129db888261297e565b97506129e683612996565b9250506001810190506129c7565b5085935050505092915050565b60006020820190508181036000830152612a1b81846129a3565b905092915050565b6000608082019050612a386000830187612716565b8181036020830152612a4a8186612736565b9050612a5960408301856128a7565b612a666060830184612531565b95945050505050565b6000602082019050612a8460008301846128a7565b92915050565b600080fd5b600080fd5b7f4e487b7100000000000000000000000000000000000000000000000000000000600052604160045260246000fd5b612acc826125f0565b810181811067ffffffffffffffff82111715612aeb57612aea612a94565b5b80604052505050565b6000612afe612449565b9050612b0a8282612ac3565b919050565b600067ffffffffffffffff821115612b2a57612b29612a94565b5b612b33826125f0565b9050602081019050919050565b82818337600083830152505050565b6000612b62612b5d84612b0f565b612af4565b905082815260208101848484011115612b7e57612b7d612a8f565b5b612b89848285612b40565b509392505050565b600082601f830112612ba657612ba5612a8a565b5b8135612bb6848260208601612b4f565b91505092915050565b600067ffffffffffffffff821115612bda57612bd9612a94565b5b602082029050602081019050919050565b600080fd5b6000612c03612bfe84612bbf565b612af4565b90508083825260208201905060208402830185811115612c2657612c25612beb565b5b835b81811015612c6d57803567ffffffffffffffff811115612c4b57612c4a612a8a565b5b808601612c588982612b91565b85526020850194505050602081019050612c28565b5050509392505050565b600082601f830112612c8c57612c8b612a8a565b5b8135612c9c848260208601612bf0565b91505092915050565b60008060008060808587031215612cbf57612cbe612453565b5b600085013567ffffffffffffffff811115612cdd57612cdc612458565b5b612ce987828801612b91565b945050602085013567ffffffffffffffff811115612d0a57612d09612458565b5b612d1687828801612b91565b9350506040612d27878288016124dc565b925050606085013567ffffffffffffffff811115612d4857612d47612458565b5b612d5487828801612c77565b91505092959194509250565b600080600060608486031215612d7957612d78612453565b5b6000612d87868287016124dc565b935050602084013567ffffffffffffffff811115612da857612da7612458565b5b612db486828701612b91565b9250506040612dc5868287016124dc565b9150509250925092565b6000819050919050565b6000612df4612def612dea8461245d565b612dcf565b61245d565b9050919050565b6000612e0682612dd9565b9050919050565b6000612e1882612dfb565b9050919050565b612e2881612e0d565b82525050565b6000602082019050612e436000830184612e1f565b92915050565b7f496e646578206f7574206f6620626f756e647300000000000000000000000000600082015250565b6000612e7f601383612725565b9150612e8a82612e49565b602082019050919050565b60006020820190508181036000830152612eae81612e72565b9050919050565b7f4e487b7100000000000000000000000000000000000000000000000000000000600052602260045260246000fd5b60006002820490506001821680612efc57607f821691505b602082108103612f0f57612f0e612eb5565b5b50919050565b7f506170657220646f6573206e6f74206578697374000000000000000000000000600082015250565b6000612f4b601483612725565b9150612f5682612f15565b602082019050919050565b60006020820190508181036000830152612f7a81612f3e565b9050919050565b7f4f6e6c792074686520617574686f722063616e20617070726f766520636f6e7460008201527f7269627574696f6e730000000000000000000000000000000000000000000000602082015250565b6000612fdd602983612725565b9150612fe882612f81565b604082019050919050565b6000602082019050818103600083015261300c81612fd0565b9050919050565b7f496e76616c696420636f6e747269627574696f6e20696e646578000000000000600082015250565b6000613049601a83612725565b915061305482613013565b602082019050919050565b600060208201905081810360008301526130788161303c565b9050919050565b7f436f6e747269627574696f6e20616c726561647920617070726f766564000000600082015250565b60006130b5601d83612725565b91506130c08261307f565b602082019050919050565b600060208201905081810360008301526130e4816130a8565b9050919050565b7f4e487b7100000000000000000000000000000000000000000000000000000000600052601160045260246000fd5b6000613125826124bb565b9150613130836124bb565b925082820261313e816124bb565b91508282048414831517613155576131546130eb565b5b5092915050565b7f4e487b7100000000000000000000000000000000000000000000000000000000600052601260045260246000fd5b6000613196826124bb565b91506131a1836124bb565b9250826131b1576131b061315c565b5b828204905092915050565b60006131c7826124bb565b91506131d2836124bb565b92508282019050808211156131ea576131e96130eb565b5b92915050565b60006040820190506132056000830185612716565b6132126020830184612531565b9392505050565b6132228161263a565b811461322d57600080fd5b50565b60008151905061323f81613219565b92915050565b60006020828403121561325b5761325a612453565b5b600061326984828501613230565b91505092915050565b7f546f6b656e207472616e73666572206661696c65640000000000000000000000600082015250565b60006132a8601583612725565b91506132b382613272565b602082019050919050565b600060208201905081810360008301526132d78161329b565b9050919050565b60006132e9826124bb565b91507fffffffffffffffffffffffffffffffffffffffffffffffffffffffffffffffff820361331b5761331a6130eb565b5b600182019050919050565b60008190508160005260206000209050919050565b60006020601f8301049050919050565b600082821b905092915050565b6000600883026133887fffffffffffffffffffffffffffffffffffffffffffffffffffffffffffffffff8261334b565b613392868361334b565b95508019841693508086168417925050509392505050565b60006133c56133c06133bb846124bb565b612dcf565b6124bb565b9050919050565b6000819050919050565b6133df836133aa565b6133f36133eb826133cc565b848454613358565b825550505050565b600090565b6134086133fb565b6134138184846133d6565b505050565b5b818110156134375761342c600082613400565b600181019050613419565b5050565b601f82111561347c5761344d81613326565b6134568461333b565b81016020851015613465578190505b6134796134718561333b565b830182613418565b50505b505050565b600082821c905092915050565b600061349f60001984600802613481565b1980831691505092915050565b60006134b8838361348e565b9150826002028217905092915050565b6134d1826125aa565b67ffffffffffffffff8111156134ea576134e9612a94565b5b6134f48254612ee4565b6134ff82828561343b565b600060209050601f8311600181146135325760008415613520578287015190505b61352a85826134ac565b865550613592565b601f19841661354086613326565b60005b8281101561356857848901518255600182019150602085019450602081019050613543565b868310156135855784890151613581601f89168261348e565b8355505b6001600288020188555050505b505050505050565b60006080820190506135af6000830187612531565b6135bc6020830186612531565b6135c96040830185612531565b6135d66060830184612531565b95945050505050565b600081546135ec81612ee4565b6135f68186612725565b9450600182166000811461361157600181146136275761365a565b60ff19831686528115156020028601935061365a565b61363085613326565b60005b8381101561365257815481890152600182019150602081019050613633565b808801955050505b50505092915050565b60006040820190506136786000830185612531565b818103602083015261368a81846135df565b90509392505050565b7f4e487b7100000000000000000000000000000000000000000000000000000000600052603260045260246000fd5b600060a0820190506136d76000830188612531565b81810360208301526136e98187612736565b905081810360408301526136fd8186612736565b905061370c6060830185612531565b818103608083015261371e81846127bc565b90509695505050505050565b600060608201905061373f6000830186612716565b61374c6020830185612716565b6137596040830184612531565b949350505050565b60006080820190506137766000830187612531565b6137836020830186612531565b81810360408301526137958185612736565b90506137a46060830184612531565b95945050505050565b7f5573657220616c7265616479206861732061636365737320746f20746869732060008201527f7061706572000000000000000000000000000000000000000000000000000000602082015250565b6000613809602583612725565b9150613814826137ad565b604082019050919050565b60006020820190508181036000830152613838816137fc565b9050919050565b60006040820190506138546000830185612531565b6138616020830184612531565b939250505056fea26469706673582212207f112bd91e6d030a56ceb95d549f0bc7f39a1b9715aef7c456be3634746932cc64736f6c63430008180033",
  "linkReferences": {},
  "deployedLinkReferences": {}
}